:020000040800F2
:10000000A804002005010008DF0D00080F0D0008FE
:10001000DD0D00089D0100081D1000080000000013
:10002000000000000000000000000000E30D0008D8
:100030009F01000800000000E10D0008010E00080B
:100040001F0100081F0100081F0100081F01000810
:100050001F0100081F0100081F0100081F01000800
:100060001F0100081F0100081F0100081F010008F0
:100070001F0100081F0100081F0100081F010008E0
:100080001F0100081F0100081F0100081F010008D0
:100090001F0100081F0100081F0100081F010008C0
:1000A0001F0100081F0100081F0100081F010008B0
:1000B0001F0100081F0100081F0100081F010008A0
:1000C0001F0100081F0100081F0100081F01000890
:1000D0001F0100081F0100081F0100081F01000880
:1000E0001F0100081F0100081F010008DFF810D0E1
:1000F00000F042F800480047ED110008AFF300801F
:10010000A80400200648804706480047FEE7FEE7AF
:10011000FEE7FEE7FEE7FEE7FEE7FEE7FEE7FEE7B7
:10012000630E0008ED000008D2B201E000F8012BD8
:10013000491EFBD270470022F6E710B513460A4667
:1001400004461946FFF7F0FF204610BD30B50B46B8
:10015000014600202022012409E021FA02F59D42F7
:1001600005D303FA02F5491B04FA02F52844151ECB
:10017000A2F10102F1DC30BD064C074D06E0E0685B
:1001800040F0010394E8070098471034AC42F6D3DE
:10019000FFF7B0FF6412000884120008FEE7704702
:1001A00072B6FEE701480068406A704718000020F8
:1001B0002DE9F84FDFF8B8910024A9F1040B23468C
:1001C0000F2709F1040AABF1040EC9E00125A5408F
:1001D0002A40AA427DD1674ED1F804C0ACEB060894
:1001E000B44532D014DCBCF1030F3AD009DCBCF1C9
:1001F000000F2AD0BCF1010F1CD0BCF1020F31D18D
:100200001DE0BCF1110F17D0BCF1120F2AD119E07B
:10021000B8F5881F19D006DCB8F5803F15D0B8F5C1
:10022000801F1FD111E0B8F5001F0ED0B8F5041FD4
:1002300018D10AE0CB6815E0CB681B1D12E0CB6833
:1002400008330FE0CB680C330CE08B682BB1012B2B
:100250004FF0080303D0456104E0042302E0056188
:1002600000E00023FF2A01D8064601E000F1040661
:100270004FEA840501D9A5F12005D6F8008007FAD8
:1002800005FC28EA0C0803FA05F548EA0508C6F853
:1002900000804D68ED0062D5374DAE6946F001062D
:1002A000AE61AD6924F0030605F001050095334DFC
:1002B00006EB050CDCF80850A607360F07FA06F81F
:1002C00025EA0805DFF8B880404503D14FF0000863
:1002D00017E044E0DFF8AC80404502D14FF0010860
:1002E0000FE0DFF8A480404502D14FF0020808E09B
:1002F000DFF89880404502D14FF0030801E04FF04D
:10030000040808FA06F848EA0508CCF808804D68A1
:10031000D9F80060ED024D4601D5164300E0964342
:100320002E604D68DAF80060AD02554601D51643DF
:1003300000E096432E604D68DBF80060AD035D463B
:1003400001D5164300E096432E604D68DEF800604C
:10035000ED03754601D5164300E096432E60641CFC
:100360000D682A46E5407FF431AFBDE8F88F000004
:10037000080401400000111000100240000001407C
:1003800000080140000C0140001001400014014031
:10039000014880687047000004000020024881681E
:1003A000027811448160704704000020074810B5AE
:1003B000016841F010010160032000F067F80F2090
:1003C00000F006F800F024F8002010BD00200240E4
:1003D00070B50D4D04464FF47A712878B1FBF0F0FA
:1003E0000A490968B1FBF0F000F0CEFA48B9102CC8
:1003F00007D200222146501E00F028F800206C6031
:1004000070BD012070BD000004000020100000201D
:100410000C4808B5816941F001018161816901F0F1
:1004200001010091C16941F08051C161C06900F0D2
:10043000805000900448416821F0E06141F0007173
:10044000416008BD0010024000000140F0B40E4BB6
:100450001B680C46C3F30223C3F10705042D00D922
:100460000425191D072901D2002300E0DB1E012607
:1004700006FA05F1491E214099409E40761E16401D
:100480003143F0BC00F0DCBD0CED00E0064900F0AB
:10049000070208684FF6FF03184040EA0220034AAB
:1004A00010430860704700000CED00E00000FA0502
:1004B0002DE9F0470F46050061D0434E306800F04B
:1004C0000700B84209D2306820F007003843306096
:1004D000306800F00700B84251D128683B4C8107D2
:1004E00012D5400703D5606840F4E060606028786A
:1004F000000703D5606840F4605060606068A968D8
:1005000020F0F000084360602878C00728D06868B1
:10051000012810D02168022810D0890700292EDA7E
:10052000616821F0030101436160FFF731FF8046FC
:1005300041F288390DE021688903EFE78901EDE791
:10054000FFF726FFA0EB0801494502D90320BDE8CB
:10055000F0876068696800F00C00B0EB810FEFD1A4
:10056000306800F00700B8420BD9306820F007006F
:1005700038433060306800F00700B84201D00120F5
:10058000E5E72878400705D56068E96820F4E06071
:10059000084360602878000706D56068296920F460
:1005A000605040EAC100606000F038F86168084AB5
:1005B000C1F30311515CC840064908600648006851
:1005C000FFF706FF0020C2E70020024000100240B3
:1005D0004A120008100000200800002004480549C5
:1005E00000684968044AC1F30221515CC840704761
:1005F00010000020001002405A120008044805496B
:1006000000684968044AC1F3C221515CC840704780
:1006100010000020001002405A1200080E4A5168D3
:100620000E4801F00C03042B11D0082B0FD10C48FD
:10063000C1F38343C903C05C0AD55168084AC1F3BA
:100640004041921E515C054A5043B0FBF1F07047A7
:1006500004494843704700000010024000127A002D
:100660003A12000800093D002DE9F84F040070D04F
:100670002078C04DC00749D06868C0F381000128C8
:1006800007D06868C0F38100022809D16868C003F8
:1006900006D52868800339D560680028E7D035E0A2
:1006A0006068B0F5803F0BD010B1B0F5A02F11D02D
:1006B000286820F480302860286820F4802002E038
:1006C000286840F480302860606890B1FFF760FED1
:1006D00006460AE0286840F480202860F0E700BF62
:1006E000FFF756FE801B642873D828688003F7D56F
:1006F0000CE0FFF74DFE064605E000BFFFF748FEA1
:10070000801B6428F0D828688003F7D420789A4E9C
:1007100080074FF001094FF0000839D5686810F0E4
:100720000C0F07D06868C0F38100022809D16868FF
:10073000C00306D42868800714D52069012808D191
:1007400010E02069B0B1C6F80090FFF721FE07461F
:1007500005E00AE1FFF71CFEC01B0228C4D8286888
:100760008007F7D52868616920F0F80040EAC100E9
:1007700028600DE0C6F80080FFF70AFE074604E097
:10078000FFF706FEC01B022823D828688007F7D48D
:10079000207800072CD57948A169D9B1C0F800901C
:1007A000FFF7F6FD074604E0FFF7F2FDC01B022845
:1007B0000FD8686A8007F7D571484FF4FA5100687E
:1007C000B0FBF1F0009000BF0098411E0091FAD2FA
:1007D0000EE080E0C0F80080FFF7DAFD074604E095
:1007E000FFF7D6FDC01B022875D8686A8007F7D4CA
:1007F0002078400760D5E8690027C00008D4E86980
:1008000040F08050E861E869012700F080500090D6
:100810005C480168C90513D40168834641F48071BE
:100820000160FFF7B5FD824606E000BFFFF7B0FDAF
:10083000A0EB0A0064284ED8DBF80000C005F5D50F
:10084000E06801280AD008B1052813D0286A20F0F2
:1008500001002862286A20F0040002E0286A40F0C3
:1008600001002862E06841F2883B98B1FFF790FDF3
:1008700082460BE0286A40F004002862EEE700BFE1
:10088000FFF786FDA0EB0A0159455AD8286A800770
:10089000F6D50CE0FFF77CFD824605E0FFF778FD1A
:1008A000A0EB0A0159454CD8286A8007F6D41FB13D
:1008B000E86920F08050E861E06988B36968C1F3B5
:1008C0008101022944D00228C6F8608004D0FFF7D5
:1008D0005FFD044638E034E0FFF75AFD074604E0C8
:1008E000FFF756FDC01B02282BD828688001F7D4DB
:1008F000206AB0F5803F05D16868A16820F4003017
:1009000008436860D4E908010843696821F4741158
:1009100008436860C6F86090FFF73AFD044606E0B9
:1009200025E000BFFFF734FD001B022809D8286826
:100930008001F7D51BE000BFFFF72AFD001B02284E
:1009400002D90320BDE8F88F28688001F4D40EE0B6
:100950000128F7D06868226A00F48031914204D1FE
:10096000616A00F47010884201D00120EAE700209B
:10097000E8E70000001002400000424280044242CA
:10098000100000200070004010B5401EB0F1807FC4
:1009900001D3012010BD4FF0E02460610F216017EA
:1009A00000F04EFB0020A06107202061002010BD58
:1009B00070B590F83C20012A26D0012480F83C40F4
:1009C000022280F83D2003685A689D6822F0700674
:1009D0000A6832435A600D4B02689A4208D0B2F15D
:1009E000804F05D00A4B9A4202D00A4B9A4204D15A
:1009F000496825F080031943916080F83D4000214B
:100A000080F83C10084670BD022070BD002C0140EB
:100A100000040040000800402DE9F0410D460400AC
:100A200003D094F83D0018B108E00120BDE8F08142
:100A3000002084F83C00204600F040F8022084F8B2
:100A40003D002068816844F2070291438160211DC6
:100A5000206800F007FA226890689169166A2B688E
:100A6000AF69034340F20330814341EA0721A8689C
:100A7000EF6908434FF6FC418843E96840EA0720E4
:100A8000014328692F6A000140EA0730084369687A
:100A90006D6926F0220646EA05152943936022680F
:100AA000906154F8460B0162012004F81F09E075BB
:100AB0002076E0762077A0750020B7E700B585B0F6
:100AC0000021009101910291039100680D49884233
:100AD00016D10D48C16941F00201C161C16901F03F
:100AE00002010491816941F00401816180696946D4
:100AF00000F004000490C02000900448FFF758FB69
:100B000005B000BD00040040001002400008014094
:100B100070B590F83E60044690F83F5090F842302F
:100B200090F84320022021B104290ED0012E1BD1C0
:100B300014E0012E18D1012B16D184F83E0084F860
:100B4000420001220021206820E0012D0CD1012A61
:100B50000AD184F83F0084F8430014E0012D03D14A
:100B6000012B01D1012A01D0012070BD84F83E0083
:100B700084F83F0084F8420084F8430001220021F9
:100B8000206800F0A5F901220421206800F0A0F9F6
:100B90002068016841F001010160002070BD70B55E
:100BA000040004D094F84100002510B106E00120B3
:100BB00070BD84F84050204600F024F8242084F8CA
:100BC00041002068C16821F40051C160204600F056
:100BD0008DF92068016921F4904101612068416923
:100BE00021F02A0141612068C16841F40051C160CF
:100BF0006564202084F8410084F842006563002089
:100C000070BD000030B585B00024009401940294BA
:100C1000039400681449884223D11448C16941F4FF
:100C20000031C161C16901F400310491816941F071
:100C30000401816180690E4D00F0040004900420DD
:100C40000090022001900320039069462846FFF798
:100C5000AFFA0820CDE90004694628460294FFF760
:100C6000A7FA05B030BD000000440040001002406B
:100C7000000801402DE9F843044690F841001F4662
:100C800016460D46202802D00220BDE8F8837DB12B
:100C900076B100206064212084F84100FFF778FBE2
:100CA000A6848046E684A068B0F5805F02D003E0A9
:100CB0000120EAE7206910B12E4600250EE000264B
:100CC0000CE08021204600F06DF9A0B9AEB116F815
:100CD000010B21684860E08C401EE084E08C4346B4
:100CE0004FF0000200970028EBD14FF04001204662
:100CF00000F058F930B10320C7E735F8020BC0F314
:100D00000800E6E7202084F841000020BDE7FEE768
:100D1000094808B5816941F020018161816901F0CC
:100D200020010091816941F004018161806900F036
:100D30000400009008BD00000010024010B58CB007
:100D400024216846FFF7F7F9002415480994134950
:100D50000A94C0E9001440F2E731C0E9024104619D
:100D600084610120CDE90004CDE902040494CDE9B9
:100D70000540079469460A480894FFF74DFE08B1FC
:100D8000FFF70EFA099409A905480A94FFF710FE27
:100D9000002801D0FFF704FA0CB010BD0004004099
:100DA000180000200C4810B50A4901604FF4165194
:100DB0004160002181600C22C160C0E904128161A0
:100DC000C161FFF7ECFE002803D0BDE81040FFF73B
:100DD000E7B910BD0044004060000020FEE7FEE7D8
:100DE0007047704710B500210448FFF791FEBDE839
:100DF000104004210148FFF78BBE000018000020BE
:100E0000FFF7CCBA30B58FB028216846FFF793F9C9
:100E100014210AA8FFF78FF901210804CDE9001079
:100E20000024029402250491CDE907504FF4E0100C
:100E300009906846FFF718FC08B172B6FEE70F206C
:100E4000CDE90A054FF48060CDE90C4002210AA8E3
:100E50000E94FFF72DFB002801D072B6FEE70FB00D
:100E600030BD7047F0B50268164B174C174D4FF068
:100E70008047984205D0B84203D0A04201D0A84292
:100E800003D122F070064A683243984205D0B84236
:100E900003D0A04201D0A84203D122F44074CA6812
:100EA00022434C6922F08002224302608A68C262B7
:100EB0000A688262984201D1096901630121416196
:100EC000F0BD0000002C014000040040000800407C
:100ED00010B501F01F030121046A99408C4304629C
:100EE000016A9A401143016210BD000070B50446CA
:100EF00000680169E26821F44051114301612169F0
:100F0000A0680843616908432168CA6841F20C631C
:100F10009A430243CA6020684169A26921F4407182
:100F2000114341611E492068884202D1FFF766FBE8
:100F300001E0FFF753FB00EBC00101EB001260681A
:100F400064218000B2FBF0F3B3FBF1F36FF01806FD
:100F50007343B2FBF0F5B2FBF0F605EB83053223E9
:100F600003EB0515B5FBF1F5B6FBF1F605F0F00561
:100F700005EB0615B2FBF0F6B2FBF0F0B0FBF1F0BA
:100F80006FF01802504306EB800003EB0010B0FB3B
:100F9000F1F0216800F00F002844886070BD000067
:100FA000003801402DE9F041984617460E460446A8
:100FB000069D27E0681C25D02DB1FFF7E9F9A0EBCD
:100FC0000800A8421ED920680C3050E8001F21F408
:100FD000D07140E80012002AF5D12068143050E8A2
:100FE000001F21F0010140E80012002AF5D1202065
:100FF00084F8410084F84200002084F84000032077
:10100000BDE8F0812068006836EA000004D00020C6
:10101000B842CFD00020F3E70120F9E7FEE7000057
:101020000FB4054B10B503A9044A029800F028F844
:1010300010BC5DF814FB0000D5110008140000205E
:101040000907090E002804DB00F1E02080F80014F5
:10105000704700F00F0000F1E02080F8141D704789
:1010600002E008C8121F08C1002AFAD17047704771
:10107000002001E001C1121F002AFBD170470000CF
:101080002DE9FF4F89B09B460446002506E0252840
:101090000BD05A460B999047641C6D1C2078002891
:1010A000F5D10DB02846BDE8F08F0027B8460122E3
:1010B000474900E0074314F8013F203B02FA03F0E0
:1010C0000842F7D120782E2819D114F8010F47F0E3
:1010D00004072A280ED06FF02F022078A0F13001EB
:1010E00009290CD808EB880102EB410100EB01084B
:1010F000641CF2E70A98641C50F8048B0A9020786C
:101100000028CED0642808D0692806D075281ED0C3
:101110005A460B9990476D1C58E00A994FF00A09FE
:1011200001C90A91002802DA40422D2102E0390566
:1011300004D52B218DF82010012103E0F90704D0FC
:101140002021F7E78A4608AE0DE00021FAE70A9968
:101150004FF00A0901C90A91F7E74946FEF7F6FF81
:10116000303106F8011D0028F7D1ADEB060000F183
:101170002009780701D44FF00108C84502DDA8EB2B
:10118000090000E000208046002706E008A85A4633
:10119000C05D0B9990476D1C7F1C5745F6DB04E042
:1011A00030205A460B9990476D1CB8F10001A8F108
:1011B0000108F5DC05E016F8010B5A460B9990473B
:1011C0006D1CB9F10001A9F10109F4DC641C65E7AB
:1011D0000928010013B54FF47A73012269460248C9
:1011E000FFF748FD00981CBD60000020FFF7DEF807
:1011F000FFF708FEFFF78CFDFFF7A0FDFFF7D2FD1C
:10120000FFF7F0FD05A0FFF70BFF064CFEF7CAFF46
:101210000146206004A0FFF703FFF7E731323132C7
:101220003000000000000020B1E0C2EBD6B5A3BA48
:1012300025640D0A000000000102020304050607F0
:1012400008090A0B0C0D0E0F101000000000000022
:101250000000010203040607080900000000010263
:1012600003040000841200080000002018000000A1
:10127000601000089C120008180000209004000074
:1012800070100008000000000100000010000000C5
:0C129000000000000024F400000000003A
:04000005080000ED02
:00000001FF
